{
    "contractName": "MockGenesisNFT",
    "abi": [
        {
            "inputs": [],
            "stateMutability": "nonpayable",
            "type": "constructor"
        },
        {
            "anonymous": false,
            "inputs": [
                {
                    "indexed": true,
                    "internalType": "address",
                    "name": "account",
                    "type": "address"
                },
                {
                    "indexed": true,
                    "internalType": "address",
                    "name": "operator",
                    "type": "address"
                },
                {
                    "indexed": false,
                    "internalType": "bool",
                    "name": "approved",
                    "type": "bool"
                }
            ],
            "name": "ApprovalForAll",
            "type": "event"
        },
        {
            "anonymous": false,
            "inputs": [
                {
                    "indexed": true,
                    "internalType": "address",
                    "name": "previousOwner",
                    "type": "address"
                },
                {
                    "indexed": true,
                    "internalType": "address",
                    "name": "newOwner",
                    "type": "address"
                }
            ],
            "name": "OwnershipTransferred",
            "type": "event"
        },
        {
            "anonymous": false,
            "inputs": [
                {
                    "indexed": true,
                    "internalType": "address",
                    "name": "operator",
                    "type": "address"
                },
                {
                    "indexed": true,
                    "internalType": "address",
                    "name": "from",
                    "type": "address"
                },
                {
                    "indexed": true,
                    "internalType": "address",
                    "name": "to",
                    "type": "address"
                },
                {
                    "indexed": false,
                    "internalType": "uint256[]",
                    "name": "ids",
                    "type": "uint256[]"
                },
                {
                    "indexed": false,
                    "internalType": "uint256[]",
                    "name": "values",
                    "type": "uint256[]"
                }
            ],
            "name": "TransferBatch",
            "type": "event"
        },
        {
            "anonymous": false,
            "inputs": [
                {
                    "indexed": true,
                    "internalType": "address",
                    "name": "operator",
                    "type": "address"
                },
                {
                    "indexed": true,
                    "internalType": "address",
                    "name": "from",
                    "type": "address"
                },
                {
                    "indexed": true,
                    "internalType": "address",
                    "name": "to",
                    "type": "address"
                },
                {
                    "indexed": false,
                    "internalType": "uint256",
                    "name": "id",
                    "type": "uint256"
                },
                {
                    "indexed": false,
                    "internalType": "uint256",
                    "name": "value",
                    "type": "uint256"
                }
            ],
            "name": "TransferSingle",
            "type": "event"
        },
        {
            "anonymous": false,
            "inputs": [
                {
                    "indexed": false,
                    "internalType": "string",
                    "name": "value",
                    "type": "string"
                },
                {
                    "indexed": true,
                    "internalType": "uint256",
                    "name": "id",
                    "type": "uint256"
                }
            ],
            "name": "URI",
            "type": "event"
        },
        {
            "inputs": [],
            "name": "Common",
            "outputs": [
                {
                    "internalType": "uint256",
                    "name": "",
                    "type": "uint256"
                }
            ],
            "stateMutability": "view",
            "type": "function"
        },
        {
            "inputs": [],
            "name": "CompounderNFT",
            "outputs": [
                {
                    "internalType": "uint256",
                    "name": "",
                    "type": "uint256"
                }
            ],
            "stateMutability": "view",
            "type": "function"
        },
        {
            "inputs": [],
            "name": "SnowBankNFT",
            "outputs": [
                {
                    "internalType": "uint256",
                    "name": "",
                    "type": "uint256"
                }
            ],
            "stateMutability": "view",
            "type": "function"
        },
        {
            "inputs": [],
            "name": "SquidGameNFT",
            "outputs": [
                {
                    "internalType": "uint256",
                    "name": "",
                    "type": "uint256"
                }
            ],
            "stateMutability": "view",
            "type": "function"
        },
        {
            "inputs": [],
            "name": "Uncommon",
            "outputs": [
                {
                    "internalType": "uint256",
                    "name": "",
                    "type": "uint256"
                }
            ],
            "stateMutability": "view",
            "type": "function"
        },
        {
            "inputs": [
                {
                    "internalType": "uint256",
                    "name": "tokenId",
                    "type": "uint256"
                },
                {
                    "internalType": "string",
                    "name": "tokenName",
                    "type": "string"
                }
            ],
            "name": "addModifyToken",
            "outputs": [],
            "stateMutability": "nonpayable",
            "type": "function"
        },
        {
            "inputs": [
                {
                    "internalType": "address",
                    "name": "account",
                    "type": "address"
                },
                {
                    "internalType": "uint256",
                    "name": "id",
                    "type": "uint256"
                }
            ],
            "name": "balanceOf",
            "outputs": [
                {
                    "internalType": "uint256",
                    "name": "",
                    "type": "uint256"
                }
            ],
            "stateMutability": "view",
            "type": "function"
        },
        {
            "inputs": [
                {
                    "internalType": "address[]",
                    "name": "accounts",
                    "type": "address[]"
                },
                {
                    "internalType": "uint256[]",
                    "name": "ids",
                    "type": "uint256[]"
                }
            ],
            "name": "balanceOfBatch",
            "outputs": [
                {
                    "internalType": "uint256[]",
                    "name": "",
                    "type": "uint256[]"
                }
            ],
            "stateMutability": "view",
            "type": "function"
        },
        {
            "inputs": [
                {
                    "internalType": "address",
                    "name": "account",
                    "type": "address"
                },
                {
                    "internalType": "address",
                    "name": "operator",
                    "type": "address"
                }
            ],
            "name": "isApprovedForAll",
            "outputs": [
                {
                    "internalType": "bool",
                    "name": "",
                    "type": "bool"
                }
            ],
            "stateMutability": "view",
            "type": "function"
        },
        {
            "inputs": [],
            "name": "owner",
            "outputs": [
                {
                    "internalType": "address",
                    "name": "",
                    "type": "address"
                }
            ],
            "stateMutability": "view",
            "type": "function"
        },
        {
            "inputs": [],
            "name": "renounceOwnership",
            "outputs": [],
            "stateMutability": "nonpayable",
            "type": "function"
        },
        {
            "inputs": [
                {
                    "internalType": "address",
                    "name": "from",
                    "type": "address"
                },
                {
                    "internalType": "address",
                    "name": "to",
                    "type": "address"
                },
                {
                    "internalType": "uint256[]",
                    "name": "ids",
                    "type": "uint256[]"
                },
                {
                    "internalType": "uint256[]",
                    "name": "amounts",
                    "type": "uint256[]"
                },
                {
                    "internalType": "bytes",
                    "name": "data",
                    "type": "bytes"
                }
            ],
            "name": "safeBatchTransferFrom",
            "outputs": [],
            "stateMutability": "nonpayable",
            "type": "function"
        },
        {
            "inputs": [
                {
                    "internalType": "address",
                    "name": "from",
                    "type": "address"
                },
                {
                    "internalType": "address",
                    "name": "to",
                    "type": "address"
                },
                {
                    "internalType": "uint256",
                    "name": "id",
                    "type": "uint256"
                },
                {
                    "internalType": "uint256",
                    "name": "amount",
                    "type": "uint256"
                },
                {
                    "internalType": "bytes",
                    "name": "data",
                    "type": "bytes"
                }
            ],
            "name": "safeTransferFrom",
            "outputs": [],
            "stateMutability": "nonpayable",
            "type": "function"
        },
        {
            "inputs": [
                {
                    "internalType": "address",
                    "name": "operator",
                    "type": "address"
                },
                {
                    "internalType": "bool",
                    "name": "approved",
                    "type": "bool"
                }
            ],
            "name": "setApprovalForAll",
            "outputs": [],
            "stateMutability": "nonpayable",
            "type": "function"
        },
        {
            "inputs": [
                {
                    "internalType": "bytes4",
                    "name": "interfaceId",
                    "type": "bytes4"
                }
            ],
            "name": "supportsInterface",
            "outputs": [
                {
                    "internalType": "bool",
                    "name": "",
                    "type": "bool"
                }
            ],
            "stateMutability": "view",
            "type": "function"
        },
        {
            "inputs": [
                {
                    "internalType": "uint256",
                    "name": "",
                    "type": "uint256"
                }
            ],
            "name": "tokenIdToString",
            "outputs": [
                {
                    "internalType": "string",
                    "name": "",
                    "type": "string"
                }
            ],
            "stateMutability": "view",
            "type": "function"
        },
        {
            "inputs": [
                {
                    "internalType": "address",
                    "name": "newOwner",
                    "type": "address"
                }
            ],
            "name": "transferOwnership",
            "outputs": [],
            "stateMutability": "nonpayable",
            "type": "function"
        },
        {
            "inputs": [
                {
                    "internalType": "uint256",
                    "name": "",
                    "type": "uint256"
                }
            ],
            "name": "uri",
            "outputs": [
                {
                    "internalType": "string",
                    "name": "",
                    "type": "string"
                }
            ],
            "stateMutability": "view",
            "type": "function"
        }
    ],
    "bytecode": "60806040523480156200001157600080fd5b5060408051808201909152601d81527f68747470733a2f2f6578616d706c652e636f6d2e7b69647d2e6a736f6e0000006020820152620000586301ffc9a760e01b620001a2565b620000638162000227565b62000075636cdb3d1360e11b620001a2565b620000876303a24d0760e21b620001a2565b50600480546001600160a01b0319163390811790915560405181906000907f8be0079c531659141344cd1fd0a4f28419497f9722a3daafe3b4186f6b6457e0908290a350620000f7336000670de0b6b3a7640000604051806020016040528060008152506200024060201b60201c565b620001273360016b033b2e3c9fd0803ce8000000604051806020016040528060008152506200024060201b60201c565b6200014c3360026001604051806020016040528060008152506200024060201b60201c565b62000174336003633b9aca00604051806020016040528060008152506200024060201b60201c565b6200019c336004633b9aca00604051806020016040528060008152506200024060201b60201c565b62000884565b6001600160e01b03198082161415620002025760405162461bcd60e51b815260206004820152601c60248201527f4552433136353a20696e76616c696420696e746572666163652069640000000060448201526064015b60405180910390fd5b6001600160e01b0319166000908152602081905260409020805460ff19166001179055565b80516200023c9060039060208401906200059e565b5050565b6001600160a01b038416620002a25760405162461bcd60e51b815260206004820152602160248201527f455243313135353a206d696e7420746f20746865207a65726f206164647265736044820152607360f81b6064820152608401620001f9565b33620002c881600087620002b6886200036c565b620002c1886200036c565b5050505050565b60008481526001602090815260408083206001600160a01b0389168452909152902054620002f890849062000644565b60008581526001602090815260408083206001600160a01b038a8116808652918452828520959095558151898152928301889052938516917fc3d58168c5ae7397731d063d5bbf3d657854427343f4c083240f7aacaa2d0f62910160405180910390a4620002c181600087878787620003c2565b60408051600180825281830190925260609160009190602080830190803683370190505090508281600081518110620003a957620003a96200066b565b602090810291909101015292915050565b505050505050565b620003e1846001600160a01b03166200059860201b62000d121760201c565b15620003ba5760405163f23a6e6160e01b81526001600160a01b0385169063f23a6e61906200041d9089908990889088908890600401620006d1565b6020604051808303816000875af19250505080156200045b575060408051601f3d908101601f19168201909252620004589181019062000718565b60015b6200051c576200046a6200074b565b806308c379a01415620004ab575062000482620007a3565b806200048f5750620004ad565b8060405162461bcd60e51b8152600401620001f9919062000832565b505b60405162461bcd60e51b815260206004820152603460248201527f455243313135353a207472616e7366657220746f206e6f6e204552433131353560448201527f526563656976657220696d706c656d656e7465720000000000000000000000006064820152608401620001f9565b6001600160e01b0319811663f23a6e6160e01b146200058f5760405162461bcd60e51b815260206004820152602860248201527f455243313135353a204552433131353552656365697665722072656a656374656044820152676420746f6b656e7360c01b6064820152608401620001f9565b50505050505050565b3b151590565b828054620005ac9062000847565b90600052602060002090601f016020900481019282620005d057600085556200061b565b82601f10620005eb57805160ff19168380011785556200061b565b828001600101855582156200061b579182015b828111156200061b578251825591602001919060010190620005fe565b50620006299291506200062d565b5090565b5b808211156200062957600081556001016200062e565b600082198211156200066657634e487b7160e01b600052601160045260246000fd5b500190565b634e487b7160e01b600052603260045260246000fd5b6000815180845260005b81811015620006a9576020818501810151868301820152016200068b565b81811115620006bc576000602083870101525b50601f01601f19169290920160200192915050565b6001600160a01b03868116825285166020820152604081018490526060810183905260a0608082018190526000906200070d9083018462000681565b979650505050505050565b6000602082840312156200072b57600080fd5b81516001600160e01b0319811681146200074457600080fd5b9392505050565b600060033d1115620007655760046000803e5060005160e01c5b90565b601f8201601f191681016001600160401b03811182821017156200079c57634e487b7160e01b600052604160045260246000fd5b6040525050565b600060443d1015620007b25790565b6040516003193d81016004833e81513d6001600160401b038083116024840183101715620007e257505050505090565b8285019150815181811115620007fb5750505050505090565b843d8701016020828501011115620008165750505050505090565b620008276020828601018762000768565b509095945050505050565b60208152600062000744602083018462000681565b600181811c908216806200085c57607f821691505b602082108114156200087e57634e487b7160e01b600052602260045260246000fd5b50919050565b6119bf80620008946000396000f3fe608060405234801561001057600080fd5b50600436106101155760003560e01c8063715018a6116100a2578063ab4fdef711610071578063ab4fdef714610246578063e5bfe1ac1461024e578063e985e9c514610256578063f242432a14610292578063f2fde38b146102a557600080fd5b8063715018a6146102085780638da5cb5b146102105780639b6671081461022b578063a22cb4651461023357600080fd5b80632eb2c2d6116100e95780632eb2c2d6146101b2578063323c59c4146101c55780633847bc4d146101cd5780633e1363ba146101e05780634e1273f4146101e857600080fd5b8062fdd58e1461011a57806301ffc9a7146101405780630e89341c1461017d5780632c3da6c81461019d575b600080fd5b61012d610128366004611149565b6102b8565b6040519081526020015b60405180910390f35b61016d61014e36600461118c565b6001600160e01b03191660009081526020819052604090205460ff1690565b6040519015158152602001610137565b61019061018b3660046111b0565b610351565b6040516101379190611216565b6101b06101ab3660046112ca565b6103e5565b005b6101b06101c03660046113da565b610456565b61012d600481565b6101906101db3660046111b0565b6106ba565b61012d600181565b6101fb6101f6366004611484565b610754565b6040516101379190611580565b6101b0610941565b6004546040516001600160a01b039091168152602001610137565b61012d600281565b6101b0610241366004611593565b6109b5565b61012d600381565b61012d600081565b61016d6102643660046115cf565b6001600160a01b03918216600090815260026020908152604080832093909416825291909152205460ff1690565b6101b06102a0366004611602565b610a8c565b6101b06102b3366004611667565b610c27565b60006001600160a01b0383166103295760405162461bcd60e51b815260206004820152602b60248201527f455243313135353a2062616c616e636520717565727920666f7220746865207a60448201526a65726f206164647265737360a81b60648201526084015b60405180910390fd5b5060009081526001602090815260408083206001600160a01b03949094168352929052205490565b60606003805461036090611682565b80601f016020809104026020016040519081016040528092919081815260200182805461038c90611682565b80156103d95780601f106103ae576101008083540402835291602001916103d9565b820191906000526020600020905b8154815290600101906020018083116103bc57829003601f168201915b50505050509050919050565b6004546001600160a01b0316331461040f5760405162461bcd60e51b8152600401610320906116bd565b6000828152600560209081526040909120825161042e92840190611094565b506104523383670de0b6b3a764000060405180602001604052806000815250610d18565b5050565b81518351146104b85760405162461bcd60e51b815260206004820152602860248201527f455243313135353a2069647320616e6420616d6f756e7473206c656e677468206044820152670dad2e6dac2e8c6d60c31b6064820152608401610320565b6001600160a01b0384166104de5760405162461bcd60e51b8152600401610320906116f2565b6001600160a01b0385163314806104fa57506104fa8533610264565b6105615760405162461bcd60e51b815260206004820152603260248201527f455243313135353a207472616e736665722063616c6c6572206973206e6f74206044820152711bdddb995c881b9bdc88185c1c1c9bdd995960721b6064820152608401610320565b3360005b845181101561064c57600085828151811061058257610582611737565b6020026020010151905060008583815181106105a0576105a0611737565b60209081029190910181015160008481526001835260408082206001600160a01b038e16835290935291909120549091506105dc908290611763565b60008381526001602090815260408083206001600160a01b038e811685529252808320939093558a168152205461061490829061177a565b60009283526001602090815260408085206001600160a01b038c168652909152909220919091555061064581611792565b9050610565565b50846001600160a01b0316866001600160a01b0316826001600160a01b03167f4a39dc06d4c0dbc64b70af90fd698a233a518aa5d07e595d983b8c0526c8f7fb878760405161069c9291906117ad565b60405180910390a46106b2818787878787610e29565b505050505050565b600560205260009081526040902080546106d390611682565b80601f01602080910402602001604051908101604052809291908181526020018280546106ff90611682565b801561074c5780601f106107215761010080835404028352916020019161074c565b820191906000526020600020905b81548152906001019060200180831161072f57829003601f168201915b505050505081565b606081518351146107b95760405162461bcd60e51b815260206004820152602960248201527f455243313135353a206163636f756e747320616e6420696473206c656e677468604482015268040dad2e6dac2e8c6d60bb1b6064820152608401610320565b6000835167ffffffffffffffff8111156107d5576107d5611229565b6040519080825280602002602001820160405280156107fe578160200160208202803683370190505b50905060005b84518110156109395760006001600160a01b031685828151811061082a5761082a611737565b60200260200101516001600160a01b031614156108a35760405162461bcd60e51b815260206004820152603160248201527f455243313135353a2062617463682062616c616e636520717565727920666f7260448201527020746865207a65726f206164647265737360781b6064820152608401610320565b600160008583815181106108b9576108b9611737565b6020026020010151815260200190815260200160002060008683815181106108e3576108e3611737565b60200260200101516001600160a01b03166001600160a01b031681526020019081526020016000205482828151811061091e5761091e611737565b602090810291909101015261093281611792565b9050610804565b509392505050565b6004546001600160a01b0316331461096b5760405162461bcd60e51b8152600401610320906116bd565b6004546040516000916001600160a01b0316907f8be0079c531659141344cd1fd0a4f28419497f9722a3daafe3b4186f6b6457e0908390a3600480546001600160a01b0319169055565b336001600160a01b0383161415610a205760405162461bcd60e51b815260206004820152602960248201527f455243313135353a2073657474696e6720617070726f76616c20737461747573604482015268103337b91039b2b63360b91b6064820152608401610320565b3360008181526002602090815260408083206001600160a01b03871680855290835292819020805460ff191686151590811790915590519081529192917f17307eab39ab6107e8899845ad3d59bd9653f200f220920489ca2b5937696c31910160405180910390a35050565b6001600160a01b038416610ab25760405162461bcd60e51b8152600401610320906116f2565b6001600160a01b038516331480610ace5750610ace8533610264565b610b2c5760405162461bcd60e51b815260206004820152602960248201527f455243313135353a2063616c6c6572206973206e6f74206f776e6572206e6f7260448201526808185c1c1c9bdd995960ba1b6064820152608401610320565b33610b4c818787610b3c88610f8e565b610b4588610f8e565b5050505050565b60008481526001602090815260408083206001600160a01b038a168452909152902054610b7a908490611763565b60008581526001602090815260408083206001600160a01b038b81168552925280832093909355871681522054610bb290849061177a565b60008581526001602090815260408083206001600160a01b038a811680865291845293829020949094558051888152918201879052898316928516917fc3d58168c5ae7397731d063d5bbf3d657854427343f4c083240f7aacaa2d0f62910160405180910390a46106b2818787878787610fd9565b6004546001600160a01b03163314610c515760405162461bcd60e51b8152600401610320906116bd565b6001600160a01b038116610cb65760405162461bcd60e51b815260206004820152602660248201527f4f776e61626c653a206e6577206f776e657220697320746865207a65726f206160448201526564647265737360d01b6064820152608401610320565b6004546040516001600160a01b038084169216907f8be0079c531659141344cd1fd0a4f28419497f9722a3daafe3b4186f6b6457e090600090a3600480546001600160a01b0319166001600160a01b0392909216919091179055565b3b151590565b6001600160a01b038416610d785760405162461bcd60e51b815260206004820152602160248201527f455243313135353a206d696e7420746f20746865207a65726f206164647265736044820152607360f81b6064820152608401610320565b33610d8981600087610b3c88610f8e565b60008481526001602090815260408083206001600160a01b0389168452909152902054610db790849061177a565b60008581526001602090815260408083206001600160a01b038a8116808652918452828520959095558151898152928301889052938516917fc3d58168c5ae7397731d063d5bbf3d657854427343f4c083240f7aacaa2d0f62910160405180910390a4610b4581600087878787610fd9565b6001600160a01b0384163b156106b25760405163bc197c8160e01b81526001600160a01b0385169063bc197c8190610e6d90899089908890889088906004016117db565b6020604051808303816000875af1925050508015610ea8575060408051601f3d908101601f19168201909252610ea591810190611839565b60015b610f5557610eb4611856565b806308c379a01415610eee5750610ec9611872565b80610ed45750610ef0565b8060405162461bcd60e51b81526004016103209190611216565b505b60405162461bcd60e51b815260206004820152603460248201527f455243313135353a207472616e7366657220746f206e6f6e20455243313135356044820152732932b1b2b4bb32b91034b6b83632b6b2b73a32b960611b6064820152608401610320565b6001600160e01b0319811663bc197c8160e01b14610f855760405162461bcd60e51b8152600401610320906118fc565b50505050505050565b60408051600180825281830190925260609160009190602080830190803683370190505090508281600081518110610fc857610fc8611737565b602090810291909101015292915050565b6001600160a01b0384163b156106b25760405163f23a6e6160e01b81526001600160a01b0385169063f23a6e619061101d9089908990889088908890600401611944565b6020604051808303816000875af1925050508015611058575060408051601f3d908101601f1916820190925261105591810190611839565b60015b61106457610eb4611856565b6001600160e01b0319811663f23a6e6160e01b14610f855760405162461bcd60e51b8152600401610320906118fc565b8280546110a090611682565b90600052602060002090601f0160209004810192826110c25760008555611108565b82601f106110db57805160ff1916838001178555611108565b82800160010185558215611108579182015b828111156111085782518255916020019190600101906110ed565b50611114929150611118565b5090565b5b808211156111145760008155600101611119565b80356001600160a01b038116811461114457600080fd5b919050565b6000806040838503121561115c57600080fd5b6111658361112d565b946020939093013593505050565b6001600160e01b03198116811461118957600080fd5b50565b60006020828403121561119e57600080fd5b81356111a981611173565b9392505050565b6000602082840312156111c257600080fd5b5035919050565b6000815180845260005b818110156111ef576020818501810151868301820152016111d3565b81811115611201576000602083870101525b50601f01601f19169290920160200192915050565b6020815260006111a960208301846111c9565b634e487b7160e01b600052604160045260246000fd5b601f8201601f1916810167ffffffffffffffff8111828210171561126557611265611229565b6040525050565b600067ffffffffffffffff83111561128657611286611229565b60405161129d601f8501601f19166020018261123f565b8091508381528484840111156112b257600080fd5b83836020830137600060208583010152509392505050565b600080604083850312156112dd57600080fd5b82359150602083013567ffffffffffffffff8111156112fb57600080fd5b8301601f8101851361130c57600080fd5b61131b8582356020840161126c565b9150509250929050565b600067ffffffffffffffff82111561133f5761133f611229565b5060051b60200190565b600082601f83011261135a57600080fd5b8135602061136782611325565b604051611374828261123f565b83815260059390931b850182019282810191508684111561139457600080fd5b8286015b848110156113af5780358352918301918301611398565b509695505050505050565b600082601f8301126113cb57600080fd5b6111a98383356020850161126c565b600080600080600060a086880312156113f257600080fd5b6113fb8661112d565b94506114096020870161112d565b9350604086013567ffffffffffffffff8082111561142657600080fd5b61143289838a01611349565b9450606088013591508082111561144857600080fd5b61145489838a01611349565b9350608088013591508082111561146a57600080fd5b50611477888289016113ba565b9150509295509295909350565b6000806040838503121561149757600080fd5b823567ffffffffffffffff808211156114af57600080fd5b818501915085601f8301126114c357600080fd5b813560206114d082611325565b6040516114dd828261123f565b83815260059390931b85018201928281019150898411156114fd57600080fd5b948201945b83861015611522576115138661112d565b82529482019490820190611502565b9650508601359250508082111561153857600080fd5b5061131b85828601611349565b600081518084526020808501945080840160005b8381101561157557815187529582019590820190600101611559565b509495945050505050565b6020815260006111a96020830184611545565b600080604083850312156115a657600080fd5b6115af8361112d565b9150602083013580151581146115c457600080fd5b809150509250929050565b600080604083850312156115e257600080fd5b6115eb8361112d565b91506115f96020840161112d565b90509250929050565b600080600080600060a0868803121561161a57600080fd5b6116238661112d565b94506116316020870161112d565b93506040860135925060608601359150608086013567ffffffffffffffff81111561165b57600080fd5b611477888289016113ba565b60006020828403121561167957600080fd5b6111a98261112d565b600181811c9082168061169657607f821691505b602082108114156116b757634e487b7160e01b600052602260045260246000fd5b50919050565b6020808252818101527f4f776e61626c653a2063616c6c6572206973206e6f7420746865206f776e6572604082015260600190565b60208082526025908201527f455243313135353a207472616e7366657220746f20746865207a65726f206164604082015264647265737360d81b606082015260800190565b634e487b7160e01b600052603260045260246000fd5b634e487b7160e01b600052601160045260246000fd5b6000828210156117755761177561174d565b500390565b6000821982111561178d5761178d61174d565b500190565b60006000198214156117a6576117a661174d565b5060010190565b6040815260006117c06040830185611545565b82810360208401526117d28185611545565b95945050505050565b6001600160a01b0386811682528516602082015260a06040820181905260009061180790830186611545565b82810360608401526118198186611545565b9050828103608084015261182d81856111c9565b98975050505050505050565b60006020828403121561184b57600080fd5b81516111a981611173565b600060033d111561186f5760046000803e5060005160e01c5b90565b600060443d10156118805790565b6040516003193d81016004833e81513d67ffffffffffffffff81602484011181841117156118b057505050505090565b82850191508151818111156118c85750505050505090565b843d87010160208285010111156118e25750505050505090565b6118f16020828601018761123f565b509095945050505050565b60208082526028908201527f455243313135353a204552433131353552656365697665722072656a656374656040820152676420746f6b656e7360c01b606082015260800190565b6001600160a01b03868116825285166020820152604081018490526060810183905260a06080820181905260009061197e908301846111c9565b97965050505050505056fea264697066735822122028904466739efbdcebc5152c6eca972d9db9d2c874c961d7c16e097beb7d38aa64736f6c634300080b0033",
    "sourcePath": "/Users/jacobdale/Projects/GitHub/auxilium-scripts/contracts/Mock1155.sol",
    "compiler": {
        "name": "solc",
        "version": "0.8.11+commit.d7f03943"
    },
    "functionHashes": {
        "Common()": "323c59c4",
        "CompounderNFT()": "e5bfe1ac",
        "SnowBankNFT()": "3e1363ba",
        "SquidGameNFT()": "9b667108",
        "Uncommon()": "ab4fdef7",
        "addModifyToken(uint256,string)": "2c3da6c8",
        "balanceOf(address,uint256)": "00fdd58e",
        "balanceOfBatch(address[],uint256[])": "4e1273f4",
        "isApprovedForAll(address,address)": "e985e9c5",
        "owner()": "8da5cb5b",
        "renounceOwnership()": "715018a6",
        "safeBatchTransferFrom(address,address,uint256[],uint256[],bytes)": "2eb2c2d6",
        "safeTransferFrom(address,address,uint256,uint256,bytes)": "f242432a",
        "setApprovalForAll(address,bool)": "a22cb465",
        "supportsInterface(bytes4)": "01ffc9a7",
        "tokenIdToString(uint256)": "3847bc4d",
        "transferOwnership(address)": "f2fde38b",
        "uri(uint256)": "0e89341c"
    },
    "gasEstimates": {
        "creation": {
            "codeDepositCost": "1318200",
            "executionCost": "infinite",
            "totalCost": "infinite"
        },
        "external": {
            "Common()": "229",
            "CompounderNFT()": "228",
            "SnowBankNFT()": "273",
            "SquidGameNFT()": "251",
            "Uncommon()": "206",
            "addModifyToken(uint256,string)": "infinite",
            "balanceOf(address,uint256)": "2698",
            "balanceOfBatch(address[],uint256[])": "infinite",
            "isApprovedForAll(address,address)": "infinite",
            "owner()": "2346",
            "renounceOwnership()": "30185",
            "safeBatchTransferFrom(address,address,uint256[],uint256[],bytes)": "infinite",
            "safeTransferFrom(address,address,uint256,uint256,bytes)": "infinite",
            "setApprovalForAll(address,bool)": "26717",
            "supportsInterface(bytes4)": "2598",
            "tokenIdToString(uint256)": "infinite",
            "transferOwnership(address)": "30510",
            "uri(uint256)": "infinite"
        }
    }
}